:100000000C9469000C944D050C9426050C94CC05B9
:100010000C9414060C94F0050C9491000C9491002F
:100020000C9491000C9491000C9491000C9491000C
:100030000C9491000C9491000C9491000C949100FC
:100040000C94DC040C9491000C949A050C947405A7
:100050000C9491000C9491000C9491000C949100DC
:100060000C9491000C949100B0040000B3036E074F
:100070006E076B0700000000240027002A00000024
:100080000008000201000003040700000000000057
:1000900000000000000023002600290000000000EE
:1000A000250028002B0004040404040404040202B4
:1000B00002020202030303030303010204081020E7
:1000C00040800102040810200102040810203806B4
:1000D000FE0711241FBECFEFD8E0DEBFCDBF11E079
:1000E000A0E0B1E0E4E8F6E102C005900D92A63B85
:1000F000B107D9F724E0A6EBB1E001C01D92AC37FF
:10010000B207E1F710E0C8E6D0E004C02197FE0195
:100110000E945708C736D107C9F70E94A4060C945D
:10012000350B0C940000089590E0FC01E258FF4F5D
:100130002491FC01E654FF4F3491FC01EA55FF4F36
:10014000E491EE23C9F0222339F0233001F1A8F421
:10015000213019F1223029F1F0E0EE0FFF1FE456B3
:10016000FF4FA591B4918FB7F894EC91611126C01F
:1001700030953E233C938FBF08952730A9F0283057
:10018000C9F0243049F7809180008F7D03C08091B1
:1001900080008F7780938000DFCF84B58F7784BD18
:1001A000DBCF84B58F7DFBCF8091B0008F778093BC
:1001B000B000D2CF8091B0008F7DF9CF3E2BDACF47
:1001C000CF93DF9390E0FC01E654FF4F24918A55D2
:1001D0009F4FFC0184918823D1F090E0880F991FF4
:1001E000FC01EC58FF4FA591B491FC01E456FF4F80
:1001F000C591D49161110EC09FB7F8948C91E22FF4
:10020000E0958E238C932881E223E8839FBFDF91C2
:10021000CF9108958FB7F894EC91E22BEC938FBFB8
:10022000F6CFCF93DF93C82F60E00E94E00080916B
:100230007A0381FD04C061E08C2F0E949400C0937A
:100240006B03D0E0FE01E654FF4FE491E0936C03B2
:10025000FE01EA55FF4FE491F0E0EE0FFF1FEE566E
:10026000FF4F8591949190936E0380936D03DF917E
:10027000CF9108953FB7F8948091BC029091BD0250
:10028000A091BE02B091BF0226B5A89B05C02F3F2A
:1002900019F00196A11DB11D3FBFBA2FA92F982FAC
:1002A0008827BC01CD01620F711D811D911D42E0A7
:1002B000660F771F881F991F4A95D1F708958F926F
:1002C0009F92AF92BF92CF92DF92EF92FF924B013B
:1002D0005C010E943A016B017C010E943A016C1999
:1002E0007D098E099F09683E734081059105A8F339
:1002F00021E0821A9108A108B10888EEC80E83E0B7
:10030000D81EE11CF11C81149104A104B10429F749
:10031000FF90EF90DF90CF90BF90AF909F908F9025
:100320000895AF92BF92CF92DF92EF92FF920F9318
:100330001F93CF93DF936C017B018B01040F151F7B
:10034000EB015E01AE18BF08C017D10759F06991E3
:10035000D601ED91FC910190F081E02DC601099547
:10036000892B79F7C501DF91CF911F910F91FF90F4
:10037000EF90DF90CF90BF90AF900895FC01538D28
:10038000448D252F30E0842F90E0821B930B54176F
:1003900010F0CF96089501970895FC01918D828DFC
:1003A000981761F0A28DAE0FBF2FB11D5D968C9195
:1003B000928D9F5F9F73928F90E008958FEF9FEFD4
:1003C0000895FC01918D828D981731F0828DE80F90
:1003D000F11D858D90E008958FEF9FEF0895FC014A
:1003E000918D228D892F90E0805C9F4F821B910917
:1003F0008F739927089582EC92E00E94EF0121E02B
:10040000892B09F420E0822F089580E090E0892B69
:1004100029F00E94FB0181110C9400000895FC0159
:10042000A48DA80FB92FB11DA35ABF4F2C91848D55
:1004300090E001968F739927848FA689B7892C93B2
:10044000A089B1898C91837080648C93938D848D05
:10045000981306C00288F389E02D80818F7D808308
:100460000895EF92FF920F931F93CF93DF93EC01C8
:1004700081E0888F9B8D8C8D98131AC0E889F9894B
:10048000808185FF15C09FB7F894EE89FF8960834E
:10049000E889F98980818370806480839FBF81E0CF
:1004A00090E0DF91CF911F910F91FF90EF90089511
:1004B000F62E0B8D10E00F5F1F4F0F731127E02EEC
:1004C0008C8D8E110CC00FB607FCFACFE889F98924
:1004D000808185FFF5CFCE010E940F02F1CFEB8D19
:1004E000EC0FFD2FF11DE35AFF4FF0829FB7F894F8
:1004F0000B8FEA89FB8980818062CFCFCF93DF9316
:10050000EC01888D8823B9F0AA89BB89E889F9892B
:100510008C9185FD03C0808186FD0DC00FB607FC60
:10052000F7CF8C9185FFF2CF808185FFEDCFCE0193
:100530000E940F02E9CFDF91CF910895DC0151961F
:10054000ED91FC915297908150968C9180958923E2
:10055000808308952091B5023091B602281739079B
:1005600081F49091C1028091C002981751F0E091FE
:10057000C102F0E0EA54FE4F8081082E000C990B76
:1005800008958FEF9FEF08952091B5023091B60244
:100590008217930759F4855E9E4FFC0110828FB736
:1005A000F8941092C0021092C1028FBF089520915A
:1005B000B5023091B6022817390771F48091C00254
:1005C0002091C10290E081509F4F821B91096FEFF3
:1005D00070E00E942F08089590E080E00895209137
:1005E000B5023091B60228173907C9F49091C102BB
:1005F0008091C002981799F0E091C102F0E0EA54AE
:10060000FE4F20818091C10290E001966FEF70E073
:100610000E942F088093C102822F90E008958FEFEF
:100620009FEF0895FC01611102C00C949E02A18904
:10063000B2899C918089892B8C93089520E0019741
:100640002FEF8F3F9207D9F70895BF92CF92DF9295
:10065000EF92FF920F931F93CF93DF93EC01898D5D
:100660009A8D892B81F481E090E09B838A8390E0CE
:1006700080E0DF91CF911F910F91FF90EF90DF907D
:10068000CF90BF900895062FBFB6F8946B8D6695F6
:100690006170CE010E941203898D9A8D05960E9489
:1006A0001E038B8D81FF3BC0F12CE12C10E0CC248C
:1006B000C394D12CC6010E2C01C0880F0A94EAF70E
:1006C000802341F1CE010E949E021F5F898D9A8D89
:1006D0000E941E038FEFE81AF80A87E0E816F1047B
:1006E00049F7612F60956170CE010E941203898DD8
:1006F0009A8D0E941E03CE010E949E02898D9A8DC2
:100700000E941E03BFBE898D9A8D0E941E0381E048
:1007100090E0AFCF61E0CE010E941203D7CF88E016
:10072000E82EF12C11E0802F812391F061E0CE01C1
:100730000E941203898D9A8D0E941E03110F81E081
:10074000E81AF10881F761E0CE010E941203D6CFCA
:10075000CE010E949E02EECF0F931F93CF93DF93A3
:100760008C018FE593E00E94C402E0916B03F0E0FE
:10077000EC5FFE4F8081823068F4E82FF0E081303A
:1007800071F1E898EE0FFF1FE050FF4F83E990E012
:10079000918380838FB761E080916B030E94E000BA
:1007A00061E080916B030E9494006DE070E080E056
:1007B00090E00E945F0160E080916B030E949400D2
:1007C00069E070E080E090E00E945F01E8016991DB
:1007D000662339F08FE593E00E942503F8CFE9986E
:1007E000D1CF80916B030E941101E0916B03F0E087
:1007F000EC5FFE4F8081823098F4E82FF0E0EE0F3E
:10080000FF1FE050FF4F21E534E03183208381302A
:10081000D1F0809169008C7F816080936900E89AB3
:100820008FE593E00E94C402C6E6D0E080917A048E
:10083000219789F0811111C06AE070E080E090E0BA
:100840000E945F01F3CF80916900837F8460809371
:100850006900E99AE5CF882309F110927B03D0E083
:10086000C0E09091C1028091C0028E01015A1C4FDC
:10087000981759F08FE593E00E94EF028F77F80107
:10088000848F882371F32196ECCFF801148E8BE7C7
:1008900093E0DF91CF911F910F91089590E080E058
:1008A000F8CFEF92FF920F931F93CF93DF93C091F6
:1008B000B502D091B602209749F0EE85FF859D855F
:1008C0008B8D81FF0AC08081892351F4DF91CF9104
:1008D0001F910F91FF90EF90089580818923B1F7C8
:1008E0008B899C890E941E0388E0E82EF12C10E081
:1008F00001E08D899E890E941E03EE85FF8580811F
:100900009D85892309F440C0102B000F81E0E81A6F
:10091000F10879F78F89988D0E941E038B8D81FDD8
:1009200010958091C0022091C10290E001966FEF76
:1009300070E00E942F082817190651F1212F30E08E
:10094000FE01E45EFE4F8081082E000C990BC55E0F
:10095000DE4F41E02817390709F040E048832817A7
:10096000390709F4B3CFE091C002F0E0EA54FE4F3A
:1009700010838091C00290E001966FEF70E00E94BA
:100980002F088093C002A2CF802F80951823BDCF5F
:100990008B8D81608B8F9ACF90E080E00895FC0171
:1009A00001900020E9F73197AF01481B590BBC01BA
:1009B00082EC92E00C9491011F920F920FB60F926D
:1009C00011242F933F938F939F93AF93BF93809165
:1009D000B8029091B902A091BA02B091BB023091D5
:1009E000B70223E0230F2D3758F50196A11DB11D45
:1009F0002093B7028093B8029093B902A093BA02F1
:100A0000B093BB028091BC029091BD02A091BE0246
:100A1000B091BF020196A11DB11D8093BC029093BD
:100A2000BD02A093BE02B093BF02BF91AF919F9150
:100A30008F913F912F910F900FBE0F901F9018959F
:100A400026E8230F0296A11DB11DD2CF1F920F924F
:100A50000FB60F9211242F933F934F935F936F9391
:100A60007F938F939F93AF93BF93EF93FF93E09107
:100A70000201F09103010995FF91EF91BF91AF91B0
:100A80009F918F917F916F915F914F913F912F91A6
:100A90000F900FBE0F901F9018951F920F920FB6D8
:100AA0000F9211242F933F934F935F936F937F93F4
:100AB0008F939F93AF93BF93EF93FF93E0910001C8
:100AC000F09101010995FF91EF91BF91AF919F9135
:100AD0008F917F916F915F914F913F912F910F90E7
:100AE0000FBE0F901F9018951F920F920FB60F9286
:100AF00011242F933F934F935F936F937F938F9323
:100B00009F93AF93BF93EF93FF9382EC92E00E9489
:100B10000F02FF91EF91BF91AF919F918F917F91C4
:100B20006F915F914F913F912F910F900FBE0F905A
:100B30001F9018951F920F920FB60F9211242F93AA
:100B40008F939F93EF93FF93E091D202F091D302A2
:100B50008081E091D802F091D90282FD1BC0908182
:100B60008091DB028F5F8F732091DC02821741F04E
:100B7000E091DB02F0E0EE53FD4F958F8093DB02B6
:100B8000FF91EF919F918F912F910F900FBE0F903A
:100B90001F9018958081F4CF1F920F920FB60F927D
:100BA00011242F933F934F935F936F937F938F9372
:100BB0009F93AF93BF93EF93FF930E945104FF91D4
:100BC000EF91BF91AF919F918F917F916F915F91C5
:100BD0004F913F912F910F900FBE0F901F9018953E
:100BE0001F920F920FB60F9211242F933F934F93A2
:100BF0005F936F937F938F939F93AF93BF93EF9385
:100C0000FF930E94CC05FF91EF91BF91AF919F910F
:100C10008F917F916F915F914F913F912F910F90A5
:100C20000FBE0F901F9018951F920F920FB60F9244
:100C300011242F933F934F935F936F937F938F93E1
:100C40009F93AF93BF93EF93FF930E94CC05FF91C7
:100C5000EF91BF91AF919F918F917F916F915F9134
:100C60004F913F912F910F900FBE0F901F901895AD
:100C7000CF93DF93E2ECF2E01382128288EE93E0EE
:100C8000A0E0B0E084839583A683B7832FE131E0B1
:100C90003183208325EC30E03587248724EC30E055
:100CA0003787268720EC30E0318B208B21EC30E039
:100CB000338B228B22EC30E0358B248B26EC30E01A
:100CC000378B268B118E128E138E148ECFE5D3E0C8
:100CD0001B821A828C839D83AE83BF8381E391E064
:100CE000998388831C8A1B8A1E8A1D8A188E1F8AF4
:100CF0001A8E198EEAE7F3E080818E7F826080830E
:100D000061E08DE00E94E00061E08DE00E949400CF
:100D1000E7ECF0E0E491E88BE3EBF0E0E491F0E065
:100D2000EE0FFF1FE456FF4F859194919A8B898BAC
:100D30008DE00E9411018AE080937B0410927A0476
:100D40001C8EDF91CF910895CF93DF9300D000D018
:100D50001F92CDB7DEB7789484B5826084BD84B528
:100D6000816084BD85B5826085BD85B5816085BDA6
:100D700080916E00816080936E001092810080915E
:100D800081008260809381008091810081608093E6
:100D90008100809180008160809380008091B1000B
:100DA00084608093B1008091B00081608093B00036
:100DB00080917A00846080937A0080917A008260CA
:100DC00080937A0080917A00816080937A0080918C
:100DD0007A00806880937A001092C100E091D2027C
:100DE000F091D30282E08083E091CE02F091CF02B5
:100DF0001082E091D002F091D1028FEC80831092AA
:100E0000DA02E091D602F091D70286E08083E09189
:100E1000D402F091D502808180618083E091D40278
:100E2000F091D502808188608083E091D402F091B6
:100E3000D502808180688083E091D402F091D50250
:100E400080818F7D80838FE391E00E94CF048FE7C4
:100E500091E00E94CF04ECE6F0E0859194919093AC
:100E6000730380937203EEE6F0E085919491909382
:100E7000750380937403E0E7F0E08591949190937B
:100E8000770380937603E2E7F0E085919491909365
:100E900079038093780390916B03963160F52091EC
:100EA000680084E0983048F031E09E3008F430E08B
:100EB00081E001C0880F3A95EAF7822B80936800A1
:100EC000EDE6F0E0983050F0EBE6F0E09E3030F0E8
:100ED000ECE6F0E0963110F0F0E0E0E04081292F00
:100EE00030E0983008F07DC081E001C0880F9A950D
:100EF000EAF7842B808380917803909179030E9494
:100F00001E038091B5029091B6028F55934091F0E7
:100F100080917A038E7F80937A038FB7F894109232
:100F2000C0021092C1022FE533E03093B602209345
:100F3000B5028FBF68EB7BE080E090E00E945F012C
:100F400082E891E00E94AC038C0185E891E00E9468
:100F5000CF040115110519F0C8010E94CF0487E9DB
:100F600091E00E94CF0461E382EC92E00E943102A2
:100F70008FE791E00E94CF041F9281E38F93F801E5
:100F80008081282F082E000C330B3F938F9384EA27
:100F900091E09F938F938E010F5F1F4F1F930F93CD
:100FA0000E945D08C8010E94AC038C018BEA91E0AD
:100FB0000E94CF040FB6F894DEBF0FBECDBF01155F
:100FC000110519F0C8010E94CF0400E010E00115DE
:100FD0001105E9F30E94FB018823C9F30E94000078
:100FE000F6CF9E3040F42850310981E001C0880FCF
:100FF0002A95EAF77ECF2E503109F7CF81E391E0B1
:101000009093600380935F0320916B032631C0F4BB
:10101000EDE6F0E0283030F0EBE6F0E02E3010F0B6
:10102000ECE6F0E03081422F50E0283050F481E0CF
:1010300090E001C0880F2A95EAF78095832380838A
:1010400008952E3048F44850510981E090E001C0E5
:10105000880F4A95EAF7F1CF4E505109F6CF97FB2A
:10106000072E16F4009407D077FD09D00E9443089C
:1010700007FC05D03EF4909581959F4F089570959B
:1010800061957F4F0895AA1BBB1B51E107C0AA1FA2
:10109000BB1FA617B70710F0A61BB70B881F991F19
:1010A0005A95A9F780959095BC01CD010895EE0F52
:1010B000FF1F0590F491E02D0994AEE0B0E0E3E667
:1010C000F8E00C940C0B0D891E8986E08C831A8342
:1010D00009838FEF9FE79E838D83AE01475E5F4F4D
:1010E0006F89788DCE0101960E9480082F81388506
:1010F000020F131FF80110822E96E4E00C94280BC7
:10110000ABE0B0E0E6E8F8E00C94FE0A7C013B01BD
:101110008A01FC0117821682838181FFC8C1CE013A
:1011200001965C01F7019381F30193FD859193FF93
:1011300081913F01882309F453C1853239F493FD2D
:10114000859193FF81913F01853229F4B70190E0A9
:101150000E94700AE7CF912C212C312CFFE1F3156E
:1011600038F08B3211F190F4803209F1833229F199
:1011700037FC3CC020ED280F2A3050F536FE20C049
:101180008AE0989E200D1124922E06C08D3291F097
:10119000803371F7689430F8F30193FD859193FFE4
:1011A00081913F018111DACF21C0689431F86894B0
:1011B00032F8F2CF689433F8EFCF689434F8ECCF7C
:1011C000EAE02E9E200D1124222E689435F8E4CFFB
:1011D0008E3229F436FC04C1689436F8DDCF8C36A3
:1011E00019F4689437F8D8CF8836B1F2982F9F7DDC
:1011F00095549330E0F08336A1F18337C1F1833504
:1012000009F063C02801F2E04F0E511CF801C080C4
:10121000D180692D70E036FC02C06FEF7FEFC60110
:101220000E945A0A4C01689437F882010AC00C5F88
:101230001F4FFFE3F98388248394912C6501E89480
:1012400037F833FE2DC0522C8114910471F55520CE
:1012500009F468CFB70180E290E00E94700A5A94C6
:10126000F6CFF801808189830E5F1F4FE4CF2801FC
:10127000F2E04F0E511CF801C080D180692D70E062
:1012800036FC02C06FEF7FEFC6010E94650A4C0179
:101290008201D5CFB70180E290E00E94700A2A94C3
:1012A0002814190409F0B0F7CECFF60137FC859168
:1012B00037FE81916F01B70190E00E94700A5110D2
:1012C0005A94F1E08F1A9108BFCF843619F089360D
:1012D00009F077C0F80137FE6BC0608171818281AF
:1012E00093810C5F1F4FF32DFF763F2E97FF09C0B0
:1012F00090958095709561957F4F8F4F9F4F689423
:1013000037F82AE030E0A5010E94A00AC82ECA18CA
:101310008C2C432C36FE0CC0E89440F8C91440F4E1
:1013200034FE05C032FC03C0F32DFE7E4F2E892C07
:1013300044FE95C0FE01EC0DF11D8081803309F063
:1013400087C0242D297E422E842D8870582E43FC80
:1013500095C040FE8FC09C2C821418F42C0C922C4B
:10136000981844FE91C0B70180E390E00E94700A93
:1013700042FE09C088E790E041FE02C088E590E0A7
:10138000B7010E94700AC91408F48AC0CA94D12C0B
:101390009FEFC91AD90ACA0CDB1CF60182916F01B2
:1013A000B70190E00E94700AAC14BD04B1F74FCFB2
:1013B00060817181072E000C880B990B0E5F1F4F07
:1013C00092CFD32CE894D4F82AE030E0853739F175
:1013D000232D297FD22E8F3601F148F48835A9F0CC
:1013E000F701868197812B96E2E10C941A0B8037E6
:1013F00049F08837A9F7D4FE02C06894D2F820E1FA
:1014000030E00DC06894D4F8F6CF34FE03C0822FCC
:101410008660D82E20E132E002C028E030E0F801FA
:10142000D7FE0FC060817181828193810C5F1F4F55
:10143000A5010E94A00AC82ECA183D2CE89437F8CE
:1014400067CF6081718190E080E00E5F1F4FF0CF29
:1014500042FC02C0839478CF8394839475CF842D0B
:10146000867809F471CFF6CFB70180E290E00E9450
:10147000700A83948214C0F3512C73CF522C5818E5
:10148000821408F46ECFF8CF842D867809F47BCFD0
:101490008BE241FE80E247FC8DE2B70190E071CF24
:1014A000B70180E390E00E94700A9A946CCF8FEFAE
:1014B0009FEF99CFFC010590615070400110D8F763
:1014C000809590958E0F9F1F0895FC01615070408C
:1014D00001900110D8F7809590958E0F9F1F089569
:1014E0000F931F93CF93DF93182F092FEB018B815D
:1014F00081FD09C01FEF0FEF812F902FDF91CF915A
:101500001F910F91089582FF14C02E813F818C811D
:101510009D81281739073CF4E881F981CF010196B4
:101520009983888310838E819F8101969F838E8308
:10153000E3CFE885F985812F0995892BA1F3DACFCF
:10154000FA01AA27283051F1203181F1E8946F93F4
:101550006E7F6E5F7F4F8F4F9F4FAF4FB1E03ED09A
:10156000B4E03CD0670F781F891F9A1FA11D680F38
:10157000791F8A1F911DA11D6A0F711D811D911D6B
:10158000A11D20D009F468943F912AE0269F1124E0
:101590003019305D3193DEF6CF010895462F477044
:1015A000405D4193B3E00FD0C9F7F6CF462F4F709F
:1015B000405D4A3318F0495D31FD4052419302D0FD
:1015C000A9F7EACFB4E0A6959795879577956795A3
:1015D000BA95C9F700976105710508959B01AC01A3
:1015E0000A2E06945795479537952795BA95C9F7CA
:1015F000620F731F841F951FA01D08952F923F92A5
:101600004F925F926F927F928F929F92AF92BF9212
:10161000CF92DF92EF92FF920F931F93CF93DF93BE
:10162000CDB7DEB7CA1BDB0B0FB6F894DEBF0FBE1B
:10163000CDBF09942A88398848885F846E847D8468
:101640008C849B84AA84B984C884DF80EE80FD806A
:101650000C811B81AA81B981CE0FD11D0FB6F894E0
:10166000DEBF0FBECDBFED01089510E0C8E6D0E0AB
:1016700004C0FE010E9457082196C936D107C9F758
:04168000F894FFCF0C
:1016840093009300FFFF0001000000000000000031
:101694000000000000000004050203000000003107
:1016A400029101BE017E02EF01CD01E101000000C3
:1016B4000025039101CC04C402D702EF02AA02540C
:1016C40045524F532D313220416464726573732047
:1016D400636F6E666967757261746F722C20636FD5
:1016E4006D70696C6564206F6E204D6179203234B1
:1016F40020323032332031343A30363A3234000D2D
:101704000A003F210053656E736F72206163746930
:10171400766520617420004368616E67696E672096
:10172400746F200025634125632100526573706F37
:061734006E6465642000F4
:00000001FF
