:100000000C9469000C94BA050C9493050C94390671
:100010000C9481060C945D060C9491000C94910054
:100020000C9491000C9491000C9491000C9491000C
:100030000C9491000C9491000C9491000C949100FC
:100040000C9449050C9491000C9407060C94E1055E
:100050000C9491000C9491000C9491000C949100DC
:100060000C9491000C949100B0040000B3036E074F
:100070006E076B0700000000240027002A00000024
:100080000008000201000003040700000000000057
:1000900000000000000023002600290000000000EE
:1000A000250028002B0004040404040404040202B4
:1000B00002020202030303030303010204081020E7
:1000C0004080010204081020010204081020A50647
:1000D000170911241FBECFEFD8E0DEBFCDBF24E04B
:1000E000AEE5B1E001C01D92A832B207E1F711E020
:1000F000A0E0B1E0E4ECFCE102C005900D92AE3569
:10010000B107D9F710E0C8E6D0E004C02197FE019E
:100110000E94B309C736D107C9F70E9411070C9492
:10012000550E0C940000089590E0FC01E258FF4F3A
:100130002491FC01E654FF4F3491FC01EA55FF4F36
:10014000E491EE23C9F0222339F0233001F1A8F421
:10015000213019F1223029F1F0E0EE0FFF1FE456B3
:10016000FF4FA591B4918FB7F894EC91611126C01F
:1001700030953E233C938FBF08952730A9F0283057
:10018000C9F0243049F7809180008F7D03C08091B1
:1001900080008F7780938000DFCF84B58F7784BD18
:1001A000DBCF84B58F7DFBCF8091B0008F778093BC
:1001B000B000D2CF8091B0008F7DF9CF3E2BDACF47
:1001C000CF93DF9390E0FC01E654FF4F24918A55D2
:1001D0009F4FFC0184918823D1F090E0880F991FF4
:1001E000FC01EC58FF4FA591B491FC01E456FF4F80
:1001F000C591D49161110EC09FB7F8948C91E22FF4
:10020000E0958E238C932881E223E8839FBFDF91C2
:10021000CF9108958FB7F894EC91E22BEC938FBFB8
:10022000F6CFCF93DF93C82F60E00E94E00080916B
:10023000220381FD04C061E08C2F0E949400C093D2
:100240001303D0E0FE01E654FF4FE491E093140362
:10025000FE01EA55FF4FE491F0E0EE0FFF1FEE566E
:10026000FF4F859194919093160380931503DF912E
:10027000CF9108953FB7F894809160029091610208
:10028000A0916202B091630226B5A89B05C02F3FE2
:1002900019F00196A11DB11D3FBFBA2FA92F982FAC
:1002A0008827BC01CD01620F711D811D911D42E0A7
:1002B000660F771F881F991F4A95D1F708958F926F
:1002C0009F92AF92BF92CF92DF92EF92FF924B013B
:1002D0005C010E943A016B017C010E943A016C1999
:1002E0007D098E099F09683E734081059105A8F339
:1002F00021E0821A9108A108B10888EEC80E83E0B7
:10030000D81EE11CF11C81149104A104B10429F749
:10031000FF90EF90DF90CF90BF90AF909F908F9025
:100320000895AF92BF92CF92DF92EF92FF920F9318
:100330001F93CF93DF936C017B018B01040F151F7B
:10034000EB015E01AE18BF08C017D10759F06991E3
:10035000D601ED91FC910190F081E02DC601099547
:10036000892B79F7C501DF91CF911F910F91FF90F4
:10037000EF90DF90CF90BF90AF900895FC01538D28
:10038000448D252F30E0842F90E0821B930B54176F
:1003900010F0CF96089501970895FC01918D828DFC
:1003A000981761F0A28DAE0FBF2FB11D5D968C9195
:1003B000928D9F5F9F73928F90E008958FEF9FEFD4
:1003C00008952FB7F8948091640290916502A091EE
:1003D0006602B09167022FBF8093720290937302FE
:1003E000A0937402B09375028AE692E00E94CD0158
:1003F00097FF26C02FB7F894809164029091650210
:10040000A0916602B09167022FBF40917202509195
:1004100073026091740270917502841B950BA60B98
:10042000B70B40916E0250916F0260917002709113
:10043000710284179507A607B707B0F28FEF9FEFF9
:100440000895FC01918D828D981731F0828DE80F0F
:10045000F11D858D90E008958FEF9FEF0895FC01C9
:10046000918D228D892F90E0805C9F4F821B910996
:100470008F73992708958AE692E00E942F0221E067
:10048000892B09F420E0822F089580E090E0892BE9
:1004900029F00E943B0281110C9400000895FC0198
:1004A000A48DA80FB92FB11DA35ABF4F2C91848DD5
:1004B00090E001968F739927848FA689B7892C9332
:1004C000A089B1898C91837080648C93938D848D85
:1004D000981306C00288F389E02D80818F7D808388
:1004E0000895EF92FF920F931F93CF93DF93EC0148
:1004F00081E0888F9B8D8C8D98131AC0E889F989CB
:10050000808185FF15C09FB7F894EE89FF896083CD
:10051000E889F98980818370806480839FBF81E04E
:1005200090E0DF91CF911F910F91FF90EF90089590
:10053000F62E0B8D10E00F5F1F4F0F731127E02E6B
:100540008C8D8E110CC00FB607FCFACFE889F989A3
:10055000808185FFF5CFCE010E944F02F1CFEB8D58
:10056000EC0FFD2FF11DE35AFF4FF0829FB7F89477
:100570000B8FEA89FB8980818062CFCFCF93DF9395
:10058000EC01888D8823B9F0AA89BB89E889F989AB
:100590008C9185FD03C0808186FD0DC00FB607FCE0
:1005A000F7CF8C9185FFF2CF808185FFEDCFCE0113
:1005B0000E944F02E9CFDF91CF910895DC0151965F
:1005C000ED91FC915297908150968C918095892362
:1005D0008083089520915D0230915E0228173907CB
:1005E00081F49091690280916802981751F0E0912E
:1005F0006902F0E0E25AFE4F8081082E000C990B50
:1006000008958FEF9FEF089520915D0230915E0273
:100610008217930759F4855E9E4FFC0110828FB7B5
:10062000F89410926802109269028FBF0895209189
:100630005D0230915E022817390771F480916802DB
:100640002091690290E081509F4F821B91096FEFCA
:1006500070E00E948B09089590E080E00895209159
:100660005D0230915E0228173907C9F49091690242
:1006700080916802981799F0E0916902F0E0E25ADF
:10068000FE4F20818091690290E001966FEF70E04B
:100690000E948B0980936902822F90E008958FEF6A
:1006A0009FEF08950F931F93CF93DF9387E093E01D
:1006B0000E940403C6E6D0E080912204219749F00D
:1006C000811109C06AE070E080E090E00E945F0163
:1006D000F3CF882309F110922303D0E0C0E090917A
:1006E0006902809168028E01095F1C4F981759F0CA
:1006F00087E093E00E942F038F77F801848F88238F
:1007000071F32196ECCFF801148E83E293E0DF9130
:10071000CF911F910F91089590E080E0F8CFFC01F8
:10072000611102C00C94DE02A189B2899C9180897A
:10073000892B8C93089520E001972FEF8F3F92072C
:10074000D9F70895BF92CF92DF92EF92FF920F9365
:100750001F93CF93DF93EC01898D9A8D892B81F4C0
:1007600081E090E09B838A8390E080E0DF91CF91ED
:100770001F910F91FF90EF90DF90CF90BF90089561
:10078000062FBFB6F8946B8D66956170CE010E94FE
:100790008F03898D9A8D05960E949B038B8D81FF17
:1007A0003BC0F12CE12C10E0CC24C394D12CC60129
:1007B0000E2C01C0880F0A94EAF7802341F1CE0184
:1007C0000E94DE021F5F898D9A8D0E949B038FEF2E
:1007D000E81AF80A87E0E816F10449F7612F6095F6
:1007E0006170CE010E948F03898D9A8D0E949B03B8
:1007F000CE010E94DE02898D9A8D0E949B03BFBEAE
:10080000898D9A8D0E949B0381E090E0AFCF61E0DB
:10081000CE010E948F03D7CF88E0E82EF12C11E0A3
:10082000802F812391F061E0CE010E948F03898D9A
:100830009A8D0E949B03110F81E0E81AF10881F75D
:1008400061E0CE010E948F03D6CFCE010E94DE026E
:10085000EECF0F931F93CF93DF938C01E09113039F
:10086000F0E0E45FFE4F8081823068F4E82FF0E032
:10087000813071F1E898EE0FFF1FE050FF4F83E9E0
:1008800090E0918380838FB761E0809113030E9491
:10089000E00061E0809113030E9494006DE070E03D
:1008A00080E090E00E945F0160E0809113030E946D
:1008B000940069E070E080E090E00E945F01E80150
:1008C0006991662339F087E093E00E94A203F8CF94
:1008D000E998D1CF809113030E941101E091130395
:1008E000F0E0E45FFE4F8081823098F4E82FF0E082
:1008F000EE0FFF1FE050FF4F26E934E031832083E5
:10090000813061F0809169008C7F81608093690003
:10091000E89ADF91CF911F910F910895809169001E
:10092000837F846080936900E99AF3CFEF92FF920E
:100930000F931F93CF93DF93C0915D02D0915E021E
:10094000209749F0EE85FF859D858B8D81FF0AC03C
:100950008081892351F4DF91CF911F910F91FF90F6
:10096000EF90089580818923B1F78B899C890E943B
:100970009B0388E0E82EF12C10E001E08D899E8930
:100980000E949B03EE85FF8580819D85892309F464
:1009900040C0102B000F81E0E81AF10879F78F8929
:1009A000988D0E949B038B8D81FD1095809168022C
:1009B0002091690290E001966FEF70E00E948B0930
:1009C0002817190651F1212F30E0FE01E45EFE4F99
:1009D0008081082E000C990BC55EDE4F41E0281780
:1009E000390709F040E048832817390709F4B3CFE5
:1009F000E0916802F0E0E25AFE4F108380916802B5
:100A000090E001966FEF70E00E948B09809368027E
:100A1000A2CF802F80951823BDCF8B8D81608B8FC7
:100A20009ACF90E080E00895FC0101900020E9F762
:100A30003197AF01481B590BBC018AE692E00C9438
:100A400091010F931F93CF93DF93EC0188819981DC
:100A5000009759F02A813B812617370730F081E053
:100A6000DF91CF911F910F9108958B016F5F7F4FA1
:100A70000E94DE0A009759F0998388831B830A83BA
:100A80002C813D81232B59F7FC011082E8CF80E0B7
:100A9000E7CF1F920F920FB60F9211242F933F931F
:100AA0008F939F93AF93BF9380916402909165025F
:100AB000A0916602B091670230915F0223E0230F9C
:100AC0002D3758F50196A11DB11D20935F0280932B
:100AD000640290936502A0936602B09367028091CE
:100AE000600290916102A0916202B091630201964E
:100AF000A11DB11D8093600290936102A0936202D8
:100B0000B0936302BF91AF919F918F913F912F91CD
:100B10000F900FBE0F901F90189526E8230F029696
:100B2000A11DB11DD2CF1F920F920FB60F921124AB
:100B30002F933F934F935F936F937F938F939F93E5
:100B4000AF93BF93EF93FF93E0910201F091030104
:100B50000995FF91EF91BF91AF919F918F917F91F7
:100B60006F915F914F913F912F910F900FBE0F901A
:100B70001F9018951F920F920FB60F9211242F936A
:100B80003F934F935F936F937F938F939F93AF9315
:100B9000BF93EF93FF93E0910001F091010109955C
:100BA000FF91EF91BF91AF919F918F917F916F9145
:100BB0005F914F913F912F910F900FBE0F901F901B
:100BC00018951F920F920FB60F9211242F933F93F7
:100BD0004F935F936F937F938F939F93AF93BF9345
:100BE000EF93FF938AE692E00E944F02FF91EF910C
:100BF000BF91AF919F918F917F916F915F914F9135
:100C00003F912F910F900FBE0F901F9018951F923C
:100C10000F920FB60F9211242F938F939F93EF9300
:100C2000FF93E0917A02F0917B028081E091800253
:100C3000F091810282FD1BC09081809183028F5FC1
:100C40008F7320918402821741F0E0918302F0E0DB
:100C5000E659FD4F958F80938302FF91EF919F910D
:100C60008F912F910F900FBE0F901F90189580813C
:100C7000F4CF1F920F920FB60F9211242F933F9330
:100C80004F935F936F937F938F939F93AF93BF9394
:100C9000EF93FF930E949604FF91EF91BF91AF9164
:100CA0009F918F917F916F915F914F913F912F9184
:100CB0000F900FBE0F901F9018951F920F920FB6B6
:100CC0000F9211242F933F934F935F936F937F93D2
:100CD0008F939F93AF93BF93EF93FF930E94390637
:100CE000FF91EF91BF91AF919F918F917F916F9104
:100CF0005F914F913F912F910F900FBE0F901F90DA
:100D000018951F920F920FB60F9211242F933F93B5
:100D10004F935F936F937F938F939F93AF93BF9303
:100D2000EF93FF930E943906FF91EF91BF91AF912E
:100D30009F918F917F916F915F914F913F912F91F3
:100D40000F900FBE0F901F901895CF93DF93EAE698
:100D5000F2E01382128288EE93E0A0E0B0E0848398
:100D60009583A683B78327E231E03183208325EC86
:100D700030E03587248724EC30E03787268720EC65
:100D800030E0318B208B21EC30E0338B228B22EC56
:100D900030E0358B248B26EC30E0378B268B118EA0
:100DA000128E138E148EC7E0D3E01B821A828C83BE
:100DB0009D83AE83BF8389E391E0998388831C8AF6
:100DC0001B8A1E8A1D8A188E1F8A1A8E198EE2E2CD
:100DD000F3E080818E7F8260808361E08DE00E94FD
:100DE000E00061E08DE00E949400E7ECF0E0E49127
:100DF000E88BE3EBF0E0E491F0E0EE0FFF1FE45648
:100E0000FF4F859194919A8B898B8DE00E941101FF
:100E10008AE080932304109222041C8EDF91CF91EC
:100E20000895CF93DF93CDB7DEB72F970FB6F89421
:100E3000DEBF0FBECDBF789484B5826084BD84B51B
:100E4000816084BD85B5826085BD85B5816085BDC5
:100E500080916E00816080936E001092810080917D
:100E60008100826080938100809181008160809305
:100E70008100809180008160809380008091B1002A
:100E800084608093B1008091B00081608093B00055
:100E900080917A00846080937A0080917A008260E9
:100EA00080937A0080917A00816080937A008091AB
:100EB0007A00806880937A001092C100E0917A02F3
:100EC000F0917B0282E08083E0917602F0917702DC
:100ED0001082E0917802F09179028FEC8083109279
:100EE0008202E0917E02F0917F0286E08083E091B1
:100EF0007C02F0917D02808180618083E0917C02A0
:100F0000F0917D02808188608083E0917C02F09185
:100F10007D02808180688083E0917C02F0917D0277
:100F200080818F7D8083ECE6F0E0859194919093B1
:100F30001B0380931A03EEE6F0E085919491909361
:100F40001D0380931C03E0E7F0E08591949190935A
:100F50001F0380931E03E2E7F0E085919491909344
:100F600021038093200390911303963160F5209123
:100F7000680084E0983048F031E09E3008F430E0BA
:100F800081E001C0880F3A95EAF7822B80936800D0
:100F9000EDE6F0E0983050F0EBE6F0E09E3030F017
:100FA000ECE6F0E0963110F0F0E0E0E04081292F2F
:100FB00030E0983008F07EC081E001C0880F9A953B
:100FC000EAF7842B808380912003909121030E9473
:100FD0009B0380915D0290915E028750934091F057
:100FE000809122038E7F809322038FB7F894109212
:100FF00068021092690227E033E030935E0220938A
:101000005D028FBF68EB7BE080E090E00E945F01B3
:101010005E0137E0A30EB11C4E018CE0880E911CDE
:1010200091E5292E91E0392E80E0482E80E0582E5F
:101030008AE692E00E942F02892BD1F31A8219824C
:101040001C821B821E821D8270E060E0CE01019630
:101050000E94210529813A81811139C0211531056C
:1010600019F0C9010E94550A1A8219821E821D8236
:101070001C821B820E94E1010D811E8197FD2FC001
:101080008A30910561F18F8318860F5F1F4FB80179
:10109000CE0101960E942105882361F329813A81BE
:1010A0008D819E81B501820F931F0E94AD0B1E831F
:1010B0000D83E0CF9E3040F42850310981E001C01B
:1010C000880F2A95EAF77DCF2E503109F7CF1E827F
:1010D0001D826DE571E0C9010E94AD0BCBCFC980C7
:1010E000DA80C114D10429F076010115110509F047
:1010F0004EC08D819E81892B09F487C067E471E021
:1011000089819A810E94A40B892B09F07EC00AE094
:1011100011E02CE031E02017310709F46EC0F8012E
:10112000D1908F01ED2C0D2C000CFF08FF92DF9267
:101130002CE431E03F932F939F928F920E94B40B47
:10114000FF92DF923F922F92BF92AF920E94B40B18
:1011500087E093E00E940403C4010E9429040E94D6
:1011600052030E94520387E093E00E940403C501EA
:101170000E9429040E9452030FB6F894DEBF0FBEEE
:10118000CDBF009731F20E941405C3CF7301370120
:101190009FEF691A790AF7018081082E000C990BDC
:1011A0000E944809892B91F7015011090C0D1D1D52
:1011B000F8018081082E000C990B0E944809892BA8
:1011C00031F00E151F0518F001501109F1CF0F5F16
:1011D0001F4FA8014E195F095E834D83CE14DF04B3
:1011E00020F4B701C6010E949B0BE981FA818D8131
:1011F0009E81E80FF91F10827CCF87E591E00E9465
:1012000014058BE591E00E94140589819A8100976D
:1012100011F00E94550A4114510409F409CF0E94AB
:101220003B02882309F400CF0E940000F9CE89E335
:1012300091E09093080380930703209113032631D4
:10124000C0F4EDE6F0E0283030F0EBE6F0E02E30D0
:1012500010F0ECE6F0E03081422F50E0283050F4FE
:1012600081E090E001C0880F2A95EAF780958323FA
:10127000808308952E3048F44850510981E090E071
:1012800001C0880F4A95EAF7F1CF4E505109F6CFC9
:1012900091110C945109803219F089508550C8F78A
:1012A00008959927882708952F923F924F925F9231
:1012B0006F927F928F929F92AF92BF92CF92DF9266
:1012C000EF92FF920F931F93CF93DF93CDB7DEB7CB
:1012D000CA1BDB0B0FB6F894DEBF0FBECDBF09945F
:1012E0002A88398848885F846E847D848C849B84B6
:1012F000AA84B984C884DF80EE80FD800C811B81C4
:10130000AA81B981CE0FD11D0FB6F894DEBF0FBEF2
:10131000CDBFED01089597FB072E16F4009407D07A
:1013200077FD09D00E949F0907FC05D03EF49095F7
:1013300081959F4F0895709561957F4F0895AA1BE1
:10134000BB1B51E107C0AA1FBB1FA617B70710F0B0
:10135000A61BB70B881F991F5A95A9F780959095E2
:10136000BC01CD010895EE0FFF1F0590F491E02D13
:1013700009940F931F93CF93DF938230910510F45C
:1013800082E090E0E0912604F091270430E020E034
:10139000B0E0A0E0309799F42115310509F44AC076
:1013A000281B390B24303105D8F58A819B816115C2
:1013B000710589F1FB0193838283FE0111C0408195
:1013C00051810281138148175907E0F048175907E6
:1013D00099F4109761F012960C93129713961C9340
:1013E0003296CF01DF91CF911F910F910895009315
:1013F000260410932704F4CF2115310551F042172C
:10140000530738F0A901DB019A01BD01DF01F801A2
:10141000C1CFEF01F9CF9093270480932604CDCF5D
:10142000FE01E20FF31F819391932250310939831A
:101430002883D7CF2091240430912504232B41F415
:101440002091060130910701309325042093240454
:1014500020910401309105012115310541F42DB78A
:101460003EB74091080150910901241B350BE091D2
:101470002404F0912504E217F307A0F42E1B3F0B80
:101480002817390778F0AC014E5F5F4F24173507F6
:1014900048F04E0F5F1F509325044093240481931E
:1014A00091939FCFF0E0E0E09CCFCF93DF93009744
:1014B000E9F0FC01329713821282A0912604B091C8
:1014C0002704ED0130E020E01097A1F42081318164
:1014D000820F931F20912404309125042817390787
:1014E00009F061C0F0932504E0932404DF91CF91CB
:1014F0000895EA01CE17DF07E8F54A815B819E0176
:1015000041155105B1F7E901FB83EA8349915991EE
:10151000C40FD51FEC17FD0761F4808191810296FD
:10152000840F951FE90199838883828193819B832E
:101530008A83F0E0E0E012968D919C9113970097DA
:10154000B9F52D913C911197CD010296820F931F11
:1015500020912404309125042817390739F6309753
:1015600051F51092270410922604B0932504A093FD
:101570002404BCCFD383C28340815181840F951F43
:10158000C817D90761F44E5F5F4F88819981480F72
:10159000591F518340838A819B81938382832115C4
:1015A000310509F0B0CFF0932704E09326049ECFD5
:1015B000FD01DC01C0CF13821282D7CFB0E0A0E0E2
:1015C000E4EEFAE00C9456098C01009751F4CB013B
:1015D0000E94B9098C01C801CDB7DEB7E0E10C94D7
:1015E0007209FC01E60FF71F9C0122503109E21736
:1015F000F30708F49DC0D901CD91DC911197C6176E
:10160000D70798F0C530D10530F3CE01049786177F
:10161000970708F3C61BD70B2297C193D1936D93FD
:101620007C93CF010E94550AD6CF5B01AC1ABD0A4C
:101630004C018C0E9D1EA0912604B0912704512CC4
:10164000412CF12CE12C109731F5809124049091DC
:1016500025048815990509F05CC04616570608F060
:1016600058C08091040190910501009741F48DB715
:101670009EB74091080150910901841B950BE81712
:10168000F90708F055C0F0932504E0932404F9010C
:1016900071836083A0CF8D919C91119712966C906D
:1016A000129713967C901397A815B90559F56C01FC
:1016B00042E0C40ED11CCA14DB0420F1AC014A196B
:1016C0005B09DA011296159780F06282738251836A
:1016D0004083D9016D937C93E114F10471F0D7013B
:1016E0001396FC93EE93129776CF22968C0F9D1F44
:1016F000F90191838083F301EFCFF0932704E09306
:10170000260469CF4816590608F42C017D01D3013F
:101710009ACFCB010E94B9097C01009749F0AE0134
:10172000B8010E949B0BC8010E94550A870153CF44
:1017300010E000E050CFFB01DC0102C001900D92EF
:1017400041505040D8F70895FB01DC018D91019084
:1017500080190110D9F3990B0895FB01DC01019068
:101760000D920020E1F70895AEE0B0E0EAEBFBE077
:101770000C9462090D891E8986E08C831A83098383
:101780008FEF9FE79E838D83AE01475E5F4F6F892A
:10179000788DCE0101960E94D70B2F813885020FDC
:1017A000131FF80110822E96E4E00C947E09ABE042
:1017B000B0E0EDEDFBE00C9454097C013B018A01A3
:1017C000FC0117821682838181FFC8C1CE01019678
:1017D0005C01F7019381F30193FD859193FF819162
:1017E0003F01882309F453C1853239F493FD859173
:1017F00093FF81913F01853229F4B70190E00E9467
:10180000C70DE7CF912C212C312CFFE1F31538F0D7
:101810008B3211F190F4803209F1833229F137FCD7
:101820003CC020ED280F2A3050F536FE20C08AE05B
:10183000989E200D1124922E06C08D3291F0803397
:1018400071F7689430F8F30193FD859193FF8191CE
:101850003F018111DACF21C0689431F8689432F8E1
:10186000F2CF689433F8EFCF689434F8ECCFEAE025
:101870002E9E200D1124222E689435F8E4CF8E324E
:1018800029F436FC04C1689436F8DDCF8C3619F49F
:10189000689437F8D8CF8836B1F2982F9F7D955449
:1018A0009330E0F08336A1F18337C1F1833509F03D
:1018B00063C02801F2E04F0E511CF801C080D180B6
:1018C000692D70E036FC02C06FEF7FEFC6010E9409
:1018D000B10D4C01689437F882010AC00C5F1F4FAC
:1018E000FFE3F98388248394912C6501E89437F809
:1018F00033FE2DC0522C8114910471F5552009F44A
:1019000068CFB70180E290E00E94C70D5A94F6CFED
:10191000F801808189830E5F1F4FE4CF2801F2E038
:101920004F0E511CF801C080D180692D70E036FC4B
:1019300002C06FEF7FEFC6010E94BC0D4C01820117
:10194000D5CFB70180E290E00E94C70D2A942814F9
:10195000190409F0B0F7CECFF60137FC859137FEB8
:1019600081916F01B70190E00E94C70D51105A9408
:10197000F1E08F1A9108BFCF843619F0893609F04B
:1019800077C0F80137FE6BC06081718182819381DD
:101990000C5F1F4FF32DFF763F2E97FF09C09095E8
:1019A0008095709561957F4F8F4F9F4F689437F862
:1019B0002AE030E0A5010E94F70DC82ECA188C2C31
:1019C000432C36FE0CC0E89440F8C91440F434FEB1
:1019D00005C032FC03C0F32DFE7E4F2E892C44FE41
:1019E00095C0FE01EC0DF11D8081803309F087C0A8
:1019F000242D297E422E842D8870582E43FC95C0BC
:101A000040FE8FC09C2C821418F42C0C922C981839
:101A100044FE91C0B70180E390E00E94C70D42FEF2
:101A200009C088E790E041FE02C088E590E0B70178
:101A30000E94C70DC91408F48AC0CA94D12C9FEF24
:101A4000C91AD90ACA0CDB1CF60182916F01B701D1
:101A500090E00E94C70DAC14BD04B1F74FCF608178
:101A60007181072E000C880B990B0E5F1F4F92CFD0
:101A7000D32CE894D4F82AE030E0853739F1232DCF
:101A8000297FD22E8F3601F148F48835A9F0F7016D
:101A9000868197812B96E2E10C947009803749F09A
:101AA0008837A9F7D4FE02C06894D2F820E130E06C
:101AB0000DC06894D4F8F6CF34FE03C0822F866040
:101AC000D82E20E132E002C028E030E0F801D7FE55
:101AD0000FC060817181828193810C5F1F4FA501CE
:101AE0000E94F70DC82ECA183D2CE89437F867CF2E
:101AF0006081718190E080E00E5F1F4FF0CF42FC6B
:101B000002C0839478CF8394839475CF842D867894
:101B100009F471CFF6CFB70180E290E00E94C70DC3
:101B200083948214C0F3512C73CF522C5818821412
:101B300008F46ECFF8CF842D867809F47BCF8BE242
:101B400041FE80E247FC8DE2B70190E071CFB70122
:101B500080E390E00E94C70D9A946CCF8FEF9FEFC7
:101B600099CFFC010590615070400110D8F7809525
:101B700090958E0F9F1F0895FC0161507040019059
:101B80000110D8F7809590958E0F9F1F08950F93A1
:101B90001F93CF93DF93182F092FEB018B8181FDCA
:101BA00009C01FEF0FEF812F902FDF91CF911F9171
:101BB0000F91089582FF14C02E813F818C819D81F9
:101BC000281739073CF4E881F981CF010196998300
:101BD000888310838E819F8101969F838E83E3CFBC
:101BE000E885F985812F0995892BA1F3DACFFA01D0
:101BF000AA27283051F1203181F1E8946F936E7F4C
:101C00006E5F7F4F8F4F9F4FAF4FB1E03ED0B4E03C
:101C10003CD0670F781F891F9A1FA11D680F791F7D
:101C20008A1F911DA11D6A0F711D811D911DA11D8E
:101C300020D009F468943F912AE0269F112430199E
:101C4000305D3193DEF6CF010895462F4770405D39
:101C50004193B3E00FD0C9F7F6CF462F4F70405DE8
:101C60004A3318F0495D31FD4052419302D0A9F743
:101C7000EACFB4E0A6959795879577956795BA953D
:101C8000C9F700976105710508959B01AC010A2E03
:101C900006945795479537952795BA95C9F7620FDA
:101CA000731F841F951FA01D089510E0C8E6D0E0A3
:101CB00004C0FE010E94B3092196C936D107C9F7B5
:041CC000F894FFCFC6
:101CC400930093000000280480003031FFFF0001DE
:101CD40000000000000000000000000000000004FC
:101CE4000502030000000071029101BE01BE022F33
:101CF40002CD01210200000000A20391011105049C
:101D04000317032F03EA024D4541530025634D2178
:0E1D140000256344302100454E44000D0A00B6
:00000001FF
